:100246003F065B4F666D7D077F6F777C395E797100
:08025600FEFDFBF7EFDFBF7FA7
:10022B00081602020A040000010E01093B010C0B27
:0A023B00010828010D00020A00006E
:1001EB00E4FDFCC3ED9FEC9E5015E4FBFA0BBB004A
:0F01FB00010AEB646E4A70F50DBD00010C80E443
:01020A0022D1
:06009A008B1F8A20892162
:1000A0007526007527FEE4F522F523AB1FAA20A9CB
:1000B000218523828522831201BE752400F525E463
:1000C000F580D296C296AF278F80D297C29774469A
:1000D0002525F58274023524F583E493F580D296C4
:1000E000C2967801EF08800123D8FD752600F52718
:1000F0007F0A7E001201EB7580FF0523E523700265
:0B0100000522C39406E522940040A0F5
:01010B0022D1
:10018A00E50875F00A84F512E50875F00A8485F029
:10019A0013E50975F00A84F510E50975F00A8485F6
:1001AA00F011E50C75F00A84F50EE50C75F00A8479
:0401BA0085F00F229B
:10025E00D2A375B0FD7F647E001201EBC2A375B010
:04026E00FF0201EB9F
:10015400E4F51EE50970047F0180027F00E5087064
:10016400047E0180027E00EE5F601AE4F51ED28CEC
:1001740012025E7B007A00791612009A051EE51EB3
:05018400C3940A40E9EC
:010189002253
:03000B0002010CE3
:10010C00C0E0C0F0C0D0050BE50B7002050A758C81
:10011C003C758AB0E50B6414450A70220508F50A93
:10012C00F50BE508B43C177508000509E509B43C66
:10013C000D750900050CE50CB41803750C001201C3
:08014C008AD0D0D0F0D0E032DF
:10020B007590FF758911758C3C758AB0D2AFD2A9E8
:10021B00D28C7B007A00790E12009A12015480F274
:0300000002000EED
:0C000E00787FE4F6D8FD758127020055CC
:1001BE00BB010CE58229F582E5833AF583E02250F6
:1001CE0006E92582F8E622BBFE06E92582F8E22240
:0D01DE00E58229F582E5833AF583E493225A
:10001A0002020BE493A3F8E493A34003F68001F2EF
:10002A0008DFF48029E493A3F85407240CC8C333E7
:10003A00C4540F4420C8834004F456800146F6DFB6
:10004A00E4800B010204081020408090022BE47E19
:10005A00019360BCA3FF543F30E509541FFEE493AB
:10006A00A360010ECF54C025E060A840B8E493A372
:10007A00FAE493A3F8E493A3C8C582C8CAC583CA9D
:10008A00F0A3C8C582C8CAC583CADFE9DEE780BE55
:0102450000B8
:00000001FF
